:020000040800F2
:10000000A804002045010008950400089704000892
:100010009B0400089F040008A304000800000000DF
:10002000000000000000000000000000A70400081D
:10003000A904000800000000AB040008AD0400089B
:100040005F0100085F0100085F0100085F01000810
:100050005F0100085F0100085F0100085F01000800
:100060005F0100085F0100085F0100085F010008F0
:100070005F0100085F0100085F0100085F010008E0
:100080005F0100085F0100085F0100085F010008D0
:100090005F0100085F0100085F0100085F010008C0
:1000A0005F0100085F0100085F0100085F010008B0
:1000B0005F0100085F0100085F0100085F010008A0
:1000C0005F0100085F0100085F0100085F01000890
:1000D0005F0100085F010008B50400085F01000827
:1000E0005F0100085F0100085F0100085F01000870
:1000F0005F0100085F0100085F0100085F01000860
:100100005F0100085F0100085F0100085F0100084F
:100110005F0100085F0100085F0100085F0100083F
:100120005F0100085F0100085F0100085F0100082F
:10013000DFF80CD003F084F900480047CF03000833
:10014000A80400200648804706480047FEE7FEE76F
:10015000FEE7FEE7FEE7FEE7FEE7FEE7FEE7FEE777
:10016000B72D000831010008014600BF704770B587
:1001700004460D46E1B2B34801F005FB00BF802103
:10018000B04801F080FB0028F9D0204670BD10B5C2
:10019000044600BF2021AB4801F075FB0028F9D0D0
:1001A000A84801F0F4FA10BD01464FF0FF30704747
:1001B00010B5012000F03AFE00BF612000F041FDC3
:1001C0000028FAD045F2555002F0D6FC032002F088
:1001D000D6FC4FF47A6002F0D5FC02F0D6FC02F0B7
:1001E000D9FC10BD10B500F0C7F99748406900F17F
:1001F000020095494861FFF7DBFF00F0C4FA00F008
:10020000ABFB00F08BF900F09FF900F0B3FB10BDE1
:100210000BE04FF00002114602E001F1010211462D
:100220000A29FADBA0F1010210460028F1D170473B
:100230002DE9F04705460E464FF0000004460746FC
:100240008046814681484068312806D0322843D014
:1002500033285BD0342877D177E07C48C068A0F1A0
:1002600030007A498968A1F1300101EB810100EB8E
:100270004100044675484069A0F13000734909699E
:10028000A1F1300101EB810100EB410007466F480D
:100290008069A0F130006D49C969A1F1300101EB1D
:1002A000810100EB410080466848406AA0F13000BF
:1002B0006649096AA1F1300101EB810100EB4100BF
:1002C00081462C6037606048C0F80C80C0F8109000
:1002D0005FA000F0AFFA48E05C48C068A0F13000D1
:1002E0005A498968A1F1300101EB810100EB410419
:1002F000594804604FF0640004FB00F0574908803F
:1003000000F0D4FA52A003F0ADF82EE04F48C068D8
:10031000A0F130004D498968A1F1300101EB810164
:1003200000EB41000446012C0AD101034C4800F0C7
:10033000D0FF4C48FFF76CFF2103494800F0CBFF8A
:1003400043A003F08FF810E00BE0474800684FF43B
:100350007A71B0FBF1F08246514644A003F082F876
:1003600003E045A003F07EF800BF00BFBDE8F087C2
:1003700010B5044614E04FF48051394800F0A9FF4D
:100380003F48FFF745FF4FF48051354800F0A3FF89
:100390003B48FFF73DFF2C484069A04200D100E0F8
:1003A000E9E700BF10BD70B505460C462648C06899
:1003B000A8420BD124480069A04207D14FF00000A9
:1003C000214948614FF01400FFF7D2FF70BD1CB502
:1003D0004FF0000001900090FFF704FF30E0012192
:1003E0001F4800F076FF1F48FFF712FF01211C484D
:1003F00000F071FF1B48FFF70BFF1448C06C012889
:1004000007D1694601A8FFF713FF50210F4802F0FA
:100410007AFD02F0BAFB00F077FB00F082FB124994
:100420000860084600684FF47A71B0FBF1F00446AA
:10043000214614A003F016F8DDE90010FFF7B3FF22
:10044000CDE7000000440040900000204000002064
:100450003031303100000000000000201400002086
:10046000000C014020A1070004000020303325309B
:1004700033643535616100003032303200000000F5
:10048000A08601007468652074656D70203D256448
:1004900000000000704700BFFEE700BFFEE700BF9E
:1004A000FEE700BFFEE770477047704710B500F0E9
:1004B0002FF910BD10B540F22551154801F000FA92
:1004C00020B3134801F063F91249134A126841F846
:1004D000220011480068401E51F8200061280FD109
:1004E00008460D49096850F82100612808D14FF0ED
:1004F0000000094908604FF001000649C86410BDBA
:100500000548006800F101000349086000BFF6E7F4
:1005100000440040400000200C00002008B50121EC
:10052000082000F01CFD4FF00100ADF800004FF076
:1005300010008DF803004FF003008DF802006946AB
:100540000C4800F0EBFD08BD08B50121082000F0C3
:1005500006FD4FF48050ADF800004FF010008DF80C
:1005600003004FF003008DF802006946014800F0D7
:10057000D5FD08BD000C014030B5714800684FF44E
:100580007A72B0FBF2F1B1F1807F02D34FF001003B
:1005900028E021F07F40A0F101004FF0E0225061FF
:1005A0004FF0FF304FF00F0200280ADA4FEA0273D3
:1005B0004FEA1363634C00F00F05A5F10405635582
:1005C00005E04FEA02734FEA13635F4C235400BF08
:1005D0004FF000004FF0E02290614FF007001061F3
:1005E0004FF0000008B100BFFEE74FF0E0200069C7
:1005F00040F001004FF0E021086130BD00B58DB042
:100600004FF034025149684602F064FC504840699A
:100610003C287BD14E4840694FF03C01B0FBF1F0E3
:100620004B49096908444A4908614FF00000486194
:10063000084600693C2869D1084600694FF03C0132
:10064000B0FBF1F04249C96808444149C8604FF025
:10065000000008610846C068182857D10846C068DD
:100660004FF01801B0FBF1F0394989680844384966
:1006700088604FF00000C8600846406802281BD11F
:10068000084680681C2817D1084600684FF4C871D6
:10069000B0FBF1F068B92E480068800809D12C48F9
:1006A00000686421B0FBF1F018B14FF01D0002901A
:1006B00002E04FF01C0002902548816840685DF818
:1006C0002000401C814221D121488068204949688E
:1006D0005DF82110B0FBF1F01D49496808441C4940
:1006E00048604FF001008860084640680D280DD131
:1006F000084640684FF00D01B0FBF1F0144909685D
:100700000844134908604FF0010048600DB000BD77
:1007100010B5104909680846491C0E4A1160B0F529
:100720007A7F0BD10A48406900F10100084948610D
:10073000FFF764FF4FF000000649086010BD00009D
:100740002C00002018ED00E000E400E03038000844
:10075000900000201000002008B54FF4E06002F087
:1007600031FA4FF026008DF800004FF000008DF8B0
:1007700001004FF001008DF802008DF8030068467B
:1007800002F026FA08BD00B585B00121052000F071
:10079000E6FB0121480400F0F1FB4FF00400ADF846
:1007A00010004FF018008DF813004FF003008DF883
:1007B000120004A9264800F0B1FC4FF00800ADF883
:1007C00010004FF004008DF8130004A9204800F039
:1007D000A5FC4FF4165000904FF00000ADF8040057
:1007E000ADF80600ADF80800ADF80C004FF00C00B5
:1007F000ADF80A006946174800F07FFE012240F27A
:100800002551144800F042FF0121124800F031FF49
:10081000FFF7A2FF05B000BD10B5044621460D4804
:1008200000F0B1FF00BF80210A4801F02CF8002839
:10083000F9D010BD10B5044606E021780846FFF750
:10084000EBFF04F10100044620780028F5D110BD2B
:10085000000801400044004008B50121022000F0DA
:100860008DFB01210C2000F07AFB4FF0C000ADF8A9
:1008700000004FF018008DF803004FF003008DF8D2
:1008800002006946374800F049FC4FF00200ADF81D
:1008900000004FF018008DF803004FF003008DF8B2
:1008A00002006946304800F039FC08BD30B587B019
:1008B0004FF4FA70054640F27710044640F2E730F4
:1008C000ADF814004FF00000ADF81000ADF81600C0
:1008D000ADF8120004A9254801F01EF94FF06000A0
:1008E000ADF800004FF00100ADF80200ADF8065081
:1008F0004FF00000ADF8080069461C4801F055F9BA
:1009000008211A4801F0DFFE4FF00100ADF80200A7
:10091000ADF806406946154801F0ADF908211348C5
:1009200001F0E1FE4FF00100ADF802001048008830
:10093000ADF8060069460D4801F093FA08210B480E
:1009400001F0F3FE0121094801F089FE0121074869
:1009500001F032FD07B030BD10B5FFF77DFFFFF7A6
:10096000A5FF10BD00080140000C0140000400403C
:100970001400002008B50121082000F0F0FA4FF41F
:100980000050ADF800004FF014008DF803004FF058
:1009900003008DF802006946834800F0BFFB08BDE4
:1009A0000BE044F62062114602E0A1F1010211467B
:1009B0000029FAD1A0F1010210460028F1D17047B8
:1009C00010B54FF40051784800F085FC4FF06700F7
:1009D000044602E0A4F101000446002CFAD14FF4D1
:1009E0000051714800F075FC4FF00400044602E02D
:1009F000A4F101000446002CFAD110BD70B54FF4EB
:100A00000051694800F067FC04F1010004464FF40E
:100A10000051654800F05DFC04F10100044604F15A
:100A2000010004464FF400515F4800F03FFC0546CA
:100A30004FF00800044602E0A4F101000446002C37
:100A4000FAD1284670BD70B54FF0000006464FF051
:100A5000010005460CE0FFF7D1FF04464FEAC41041
:100A600040EA6600C0B2064605F10100C0B2054684
:100A7000082DF0DD304670BD2DE9F04105464FF000
:100A8000010007463CE005F001064FEA6500054617
:100A9000CEB14FF40051444800F01DFC04F10100B8
:100AA000044604F1010004464FF400513E4800F0B2
:100AB00010FC4FF00800044602E0A4F101000446D7
:100AC000002CFAD118E04FF40051374800F003FC35
:100AD0004FF00800044602E0A4F101000446002C97
:100AE000FAD14FF40051304800F0F3FB04F101005B
:100AF000044604F10100044607F10100C0B20746B4
:100B0000082FC0DDBDE8F08110B5FFF759FF0120C7
:100B1000FFF746FFCC20FFF7AFFF4420FFF7ACFF05
:100B200010BD2DE9F84FFFF74BFF0120FFF738FF0D
:100B3000CC20FFF7A1FFBE20FFF79EFFFFF783FF4A
:100B40008246FFF780FF8146C8464FEA082080466C
:100B500048EA0A008046404602F030FB0646002282
:100B6000124B02F0BAFA044602F06EFB83461049BB
:100B7000584602F0D4F9009002F050FB04460022DF
:100B80000C4B02F002FA064602F029FB8046404672
:100B9000BDE8F88F10B5FFF713FF0120FFF700FF46
:100BA0003320FFF769FF10BD000C01400000B03F8B
:100BB000000020410000E03FF848006840F00100DC
:100BC000F649086008464068F54900EA0100F34923
:100BD000486008460068F34900EA0100EF490860F0
:100BE0000846006820F4802008600846406820F429
:100BF000FE0048604FF41F0088607047E7490968AD
:100C000021F48031E54A11601146096821F4802100
:100C10001160B0F5803F03D0B0F5802F0ED106E013
:100C2000DE49096841F48031DC4A116007E0DB49A4
:100C3000096841F4A021D94A116000E000BF00BF5B
:100C4000704710B501464FF0000422462346204667
:100C50004FEA61142246012A03D1D04C246823466E
:100C600008E0022A03D1CD4C246A234602E0CB4C93
:100C7000646A234601F01F0422464FF0010404FA7F
:100C800002F41C4203D04FF00104204602E04FF072
:100C90000004204610BD70B54FF000000446054624
:100CA000064600BF3120FFF7CCFF064604F10100E5
:100CB0000446B4F5A06F01D0002EF3D03120FFF729
:100CC000C0FF18B14FF00100054602E04FF00000F0
:100CD0000546284670BD01464FF000021046AF4A57
:100CE0001268104620F0F802104640EAC102104691
:100CF000AA4A10607047AC490860704702464FF03E
:100D000000031846A54B5B68184620F47C13184670
:100D100042EA010343EA00031846A04B58607047BB
:100D2000A1490866704701464FF0000210469B4AF1
:100D30005268104620F00302104640EA01021046B5
:100D4000964A506070479548406800F00C00704724
:100D500001464FF000021046904A5268104620F0BB
:100D6000F002104640EA010210468C4A506070477B
:100D700001464FF000021046884A5268104620F49F
:100D8000E062104640EA01021046844A5060704713
:100D900001464FF000021046804A5268104620F487
:100DA0006052104640EAC10210467C4A50607047CB
:100DB00031B17A4A527A42EA0002784B5A7208E01C
:100DC000764A527A6FEA0003DBB202EA0302734BFF
:100DD0005A72704775490860704701464FF000022B
:100DE00010466E4A5268104620F44042104640EACF
:100DF00001021046694A506070474FF000016C4A8A
:100E00001170664A82F82010012802D004280AD105
:100E100004E04FF00101664A117005E04FF0050152
:100E2000634A117000E000BF00BF7047614908606D
:100E300070475A49096A41EA0001584A11627047ED
:100E40005D490860704730B54FF0000529462A46D5
:100E50002C462B46514D6D6805F00C05294621B1F5
:100E6000042905D008292AD105E0544D056029E060
:100E7000524D056026E0494D6D6805F470152A460F
:100E8000464D6D6805F480352C464FF0020505EBA4
:100E900092452A4624B94A4D02FB05F505600DE04E
:100EA0003E4D6D6815F4003F04D0454D02FB05F53D
:100EB000056003E0414D02FB05F5056002E03F4D92
:100EC000056000BF00BF354D6D6805F0F00529468F
:100ED0004FEA111529463B4D6D5C2B46056825FAF6
:100EE00003F545602D4D6D6805F4E06529464FEA30
:100EF00011252946334D6D5C2B46456825FA03F5CF
:100F00008560264D6D6805F4605529464FEAD12568
:100F100029462C4D6D5C2B46456825FA03F5C560C6
:100F20001E4D6D6805F4404529464FEA9135294626
:100F3000254D6D5C2B46C568B5FBF3F5056130BDED
:100F400031B1164A526942EA0002144B5A6105E077
:100F5000124A526922EA0002104B5A61704731B1BD
:100F60000E4A926942EA00020C4B9A6105E00B4A74
:100F7000926922EA0002094B9A61704731B1074A2F
:100F8000D26942EA0002054BDA6105E0034AD26900
:100F900022EA0002014BDA617047000000100240B3
:100FA0000000FFF8FFFFF6FE00004242D800424278
:100FB00020100240800442423C04424200127A0067
:100FC00000093D00160000202600002031B1204A13
:100FD000D26842EA00021E4BDA6005E01C4AD26881
:100FE00022EA00021A4BDA60704731B1184A1269DE
:100FF00042EA0002164B1A6105E0154A126922EA1C
:101000000002134B1A617047124908607047124979
:10101000C86470470E49C87170470D48406A40F077
:1010200080700B494862704701464FF0000210463D
:10103000074A92680A4203D04FF00102104602E0CC
:101040004FF0000210467047014988727047000057
:1010500000100240400442420000424210B50446E3
:10106000F748844208D101210420FFF7AFFF002197
:101070000420FFF7ABFF46E0F248844208D101218B
:101080000820FFF7A3FF00210820FFF79FFF3AE0A9
:10109000ED48844208D101211020FFF797FF00217D
:1010A0001020FFF793FF2EE0E848844208D1012189
:1010B0002020FFF78BFF00212020FFF787FF22E091
:1010C000E348844208D101214020FFF77FFF00213F
:1010D0004020FFF77BFF16E0DE48844208D1012163
:1010E0008020FFF773FF00218020FFF76FFF0AE0E9
:1010F000D948844207D101218015FFF767FF0021FD
:10110000A015FFF763FF10BD10B501210846FFF7DA
:101110005DFF00210120FFF759FF10BD2DE9F041CF
:1011200002464FF0000C65466646604663466446DC
:10113000674691F803C00CF00F0C654691F803C0A8
:101140001CF0100F04D091F802C04CEA050C654663
:10115000B1F800C01CF0FF0F3FD0D2F800C06446C9
:101160004FF0000C604635E04FF0010C0CFA00FC2B
:101170006346B1F800C00CEA030C66469E4226D1D5
:101180004FEA800C63464FF00F0C0CFA03FC6746E5
:1011900024EA070C644605FA03FC4CEA040C644696
:1011A00091F803C0BCF1280F06D14FF0010C0CFAE6
:1011B00000FCC2F814C00AE091F803C0BCF1480F6B
:1011C00005D14FF0010C0CFA00FCC2F810C000F180
:1011D000010C60460828C7D31460B1F800C0BCF108
:1011E000FF0F44DDD2F804C064464FF0000C6046A7
:1011F0003AE000F1080C4FF0010808FA0CF84346F9
:10120000B1F800C00CEA030C66469E4229D14FEAB1
:10121000800C63464FF00F0C0CFA03FC674624EA7F
:10122000070C644605FA03FC4CEA040C644691F88A
:1012300003C0BCF1280F07D100F1080C4FF00108E2
:1012400008FA0CF8C2F8148091F803C0BCF1480FFA
:1012500007D100F1080C4FF0010808FA0CF8C2F8A9
:10126000108000F1010C60460828C2D35460BDE82C
:10127000F0814FF6FF7101804FF0020181704FF055
:101280000401C170704702464FF00003184693688E
:101290000B4203D04FF00103184602E04FF0000369
:1012A000184670470146886880B2704702464FF082
:1012B00000031846D3680B4203D04FF001031846D1
:1012C00002E04FF00003184670470146C86880B23C
:1012D000704701617047416170470AB1016100E0E8
:1012E00041617047C16070474FF480331A4642EA4B
:1012F00001031A4682618161826183691A468369AA
:101300001A46704702464FF000031846534B1B68BD
:1013100018464FF6807300EA0303184640EA0213AA
:10132000184640EA010318464C4B186070474C4978
:10133000C8617047F0B50A464FF0000633463446A0
:101340003146354600F00046B6F1004F03D1434E1A
:10135000F669314602E0414E76683146C0F30346F5
:10136000354686B2334600F44016B6F5401F09D123
:1013700021F070663146394E766826F07066374F38
:101380007E601CE000F48016B6F5801F0BD14FF094
:10139000030606FA05F6344621EA0406314641F012
:1013A000706631460BE04FEA50564FEA061603FAD4
:1013B00006F621EA0606314641F07066314642B132
:1013C0004FEA50564FEA061603FA06F646EA0106B9
:1013D000314600F00046B6F1004F02D11F4EF161D8
:1013E00001E01E4E7160F0BD30B54FF000031A46AB
:1013F0004FEA81734FEA13744FF00F0303FA04F3BB
:101400001A46184B4FEAA10453F8243023EA02038A
:10141000144C4FEAA10544F8253023464FEAA104B5
:1014200053F824304FEA81744FEA147400FA04F43C
:1014300043EA04030B4C4FEAA10544F8253030BDC4
:1014400000080140000C0140001001400014014060
:1014500000180140001C0140002001400000014034
:101460000000204208000140014908607047000068
:10147000DC00204210B50446F748844209D101211E
:101480008803FFF7A3FD00214FF48040FFF79EFD86
:1014900032E0F248844209D101214804FFF7A5FD5A
:1014A00000214FF40030FFF7A0FD25E0EC48844216
:1014B00009D101218804FFF798FD00214FF4802015
:1014C000FFF793FD18E0E748844209D10121C804E1
:1014D000FFF78BFD00214FF40020FFF786FD0BE0A6
:1014E000E148844208D101210805FFF77EFD002173
:1014F0004FF48010FFF779FD10BD2DE9F04786B05D
:1015000005460E464FF000000446824600BF814665
:101510000746B08900B100BF2F46288A04464CF622
:10152000FF7004EA00000446F08840EA0400044624
:101530002C82A88904464EF6F31004EA0000044603
:10154000B088318940EA0100718940EA010040EA2F
:1015500004000446AC81A88A04464FF6FF4004EA22
:1015600000000446B08940EA04000446AC8201A8A9
:10157000FFF769FCB848874202D10498824601E02F
:1015800003988246A88910F4004F09D00AEBCA00DC
:1015900000EB0A1031684FEA4101B0FBF1F808E0B6
:1015A0000AEBCA0000EB0A1031684FEA8101B0FB78
:1015B000F1F84FF06400B8FBF0F04FEA0010044679
:1015C0004FEA14104FF0640101FB10808146A88996
:1015D00010F4004F0BD04FF0320000EBC900B0FB0D
:1015E000F1F000F0070040EA040004460CE04FF080
:1015F000320000EB09104FF06401B0FBF1F000F095
:101600000F0040EA040004462C8106B0BDE8F087D4
:101610004FF4165101604FF000018180C1800181BB
:101620004FF00C0141814FF000018181704710B5EE
:1016300002464FF000031846138A18464FF2FF0384
:1016400000EA030318460B884C8843EA04038C889D
:1016500043EA0403CC8843EA040343EA0003184640
:10166000108210BD4FF00001018041808180C18057
:10167000704721B1828942F40052828105E082895B
:101680004DF6FF7302EA030282817047F0B503460C
:101690004FF000073C463E463D463846A1F51067F0
:1016A0006A3F00D100BF1846C1F342173C4601F023
:1016B0001F073E464FF0010707FA06F73D46012C8B
:1016C00003D100F10C07384608E0022C03D100F1E9
:1016D0001007384602E000F11407384622B10768C7
:1016E00047EA0507076003E0076827EA0507076080
:1016F000F0BD10B522B1838A43EA0103838206E07C
:10170000838A6FEA0104A4B203EA0403838210BD52
:10171000028A4FF6F07302EA03020282028A42EA68
:1017200001020282704782894FF2FF7302EA0302CC
:101730008281828942EA01028281704721B18289D5
:1017400042F00202828105E082894FF6FD7302EACF
:10175000030282817047028A4FF6DF7302EA0302B6
:101760000282028A42EA01020282704721B1028AA1
:1017700042F48042028205E0028A4BF6FF7302EADD
:10178000030202827047C1F308028280704701465B
:101790008888C0F308007047818941F00101818188
:1017A0007047028BD2B20283028B42EA012202838B
:1017B0007047028B02F47F420283028B42EA0102ED
:1017C0000283704721B1828A42F02002828205E0C2
:1017D000828A4FF6DF7302EA03028282704721B1E8
:1017E000828A42F01002828205E0828A4FF6EF730D
:1017F00002EA03028282704721B1828A42F0080223
:10180000828205E0828A4FF6F77302EA030282823F
:10181000704721B1828942F40042828103E08289CB
:10182000C2F30E028281704721B1828A42F40062C3
:10183000828205E0828A4FF2FF7302EA030282820B
:101840007047828A4FF6FB7302EA03028282828A21
:1018500042EA0102828270470038014000440040A1
:1018600000480040004C00400050004021B1828AF6
:1018700042F00202828205E0828A4FF6FD7302EA9C
:1018800003028282704702464FF000031846B1F50A
:10189000007F00D100BF13880B4203D04FF001033B
:1018A000184602E04FF000031846704701F400723A
:1018B000B2F5007F00D100BF6FEA010202807047DD
:1018C00070B502464FF00006344633463546304682
:1018D000A1F510666A3E00D100BFC1F3421635463D
:1018E00001F01F0633464FF0010606FA03F63346B1
:1018F000012D04D1968906EA030633460AE0022D3B
:1019000004D1168A06EA0306334603E0968A06EAFD
:10191000030633464FEA212634464FF0010606FA05
:1019200004F63446168806EA0406344623B11CB190
:101930004FF00106304602E04FF00006304670BD21
:1019400010B54FF0000422462346A1F510646A3C0E
:1019500000D100BF4FEA212422464FF0010404FACF
:1019600002F4A4B223466FEA0304048010BD000011
:1019700010B50446FF48844208D10121C014FFF786
:1019800025FB0021E014FFF721FBC4E0B4F1804FF8
:1019900008D101210846FFF728FB00210120FFF7AD
:1019A00024FBB8E0F448844208D101210220FFF76B
:1019B0001CFB00210220FFF718FBACE0EF4884423B
:1019C00008D101210420FFF710FB00210420FFF7BC
:1019D0000CFBA0E0EA48844208D101210820FFF76F
:1019E00004FB00210820FFF700FB94E0E548844257
:1019F00008D101211020FFF7F8FA00211020FFF78D
:101A0000F4FA88E0E048844208D101212020FFF761
:101A1000ECFA00212020FFF7E8FA7CE0DB48844262
:101A200008D101214014FFF7D1FA00216014FFF71B
:101A3000CDFA70E0D648844209D10121C804FFF7ED
:101A4000C5FA00214FF40020FFF7C0FA63E0D14847
:101A5000844209D101210805FFF7B8FA00214FF4AB
:101A60008010FFF7B3FA56E0CB48844209D1012138
:101A70004805FFF7ABFA00214FF40010FFF7A6FA74
:101A800049E0C648844208D101214020FFF7ADFA61
:101A900000214020FFF7A9FA3DE0C148844208D167
:101AA00001218020FFF7A1FA00218020FFF79DFA95
:101AB00031E0BC48844208D101218015FFF795FA36
:101AC0000021A015FFF791FA25E0B748844209D11B
:101AD00001210804FFF77AFA00214FF48030FFF764
:101AE00075FA18E0B148844209D101214804FFF792
:101AF0006DFA00214FF40030FFF768FA0BE0AC48B4
:101B0000844208D101218804FFF760FA00214FF4D4
:101B10008020FFF75BFA10BD4FF000031A460388E0
:101B20001A46944B98420ED0984B98420BD0B0F185
:101B3000804F08D0904B984205D0904B984202D0ED
:101B40008F4B984208D14FF68F7302EA03031A466F
:101B50004B8843EA02031A468A4B98420BD08A4BC1
:101B6000984208D04FF6FF4302EA03031A46CB8897
:101B700043EA02031A4602808B8883850B8803851B
:101B80007C4B98420BD0814B984208D0864B9842B0
:101B900005D0864B984202D0854B984201D10B7AF2
:101BA00003864FF001038382704770B54FF0000544
:101BB0002C462A462B46058C4FF6FE7605EA06058E
:101BC0000584058C2A4685882B46058B2C464FF6C6
:101BD0008F7504EA05052C464FF6FC7504EA0505E9
:101BE0002C460D8845EA04052C464FF6FD7502EAA1
:101BF00005052A460D8945EA02052A464D8845EA2B
:101C000002052A465B4DA8420BD0604DA84208D081
:101C1000654DA84205D0654DA84202D0644DA8424A
:101C200023D14FF6F77502EA05052A464D8945EAA4
:101C300002052A464FF6FB7502EA05052A468D88FD
:101C400045EA02052A464FF6FF6503EA05052B46DD
:101C50004FF6FF5503EA05052B468D8945EA030536
:101C60002B46CD8945EA03052B4683800483CD8826
:101C70008586028470BD70B54FF000052C462A465B
:101C80002B46058C4FF6EF7605EA06050584058C94
:101C90002A4685882B46058B2C4648F6FF7504EAB4
:101CA00005052C464FF6FF4504EA05052C460D8830
:101CB0004FEA056544EA15452C464FF6DF7502EA02
:101CC00005052A460D894FEA055542EA15452A467B
:101CD0004D884FEA055542EA15452A46254DA8424A
:101CE00002D02A4DA8422BD14FF67F7502EA050596
:101CF0002A464D894FEA055542EA15452A464FF6D0
:101D0000BF7502EA05052A468D884FEA055542EA65
:101D100015452A464FF6FF3503EA05052B464FF2D7
:101D2000FF7503EA05052B468D894FEA854543EA91
:101D300015452B46CD894FEA854543EA15452B4687
:101D400083800483CD880587028470BD70B54FF011
:101D500000052C462A462B46058C4FF6FF6605EA01
:101D600006050584058C2A4685882B46858B2C46DE
:101D700020E00000002C014000040040000800406A
:101D8000000C0040001000400014004000340140EE
:101D9000004C014000500140005401400018004038
:101DA000001C004000200040004001400044014071
:101DB000004801404FF68F7504EA05052C464FF6A2
:101DC000FC7504EA05052C460D8845EA04052C46F9
:101DD0004FF6FF5502EA05052A460D894FEA0565CB
:101DE00042EA15452A464D884FEA056542EA1545FF
:101DF0002A46FE4DA84202D0FD4DA8422BD14FF2FB
:101E0000FF7502EA05052A464D894FEA056542EA53
:101E100015452A464FF6FF3502EA05052A468D8804
:101E20004FEA056542EA15452A464EF6FF7503EA74
:101E300005052B464DF6FF7503EA05052B468D89F2
:101E40004FEA055543EA15452B46CD894FEA05551E
:101E500043EA15452B4683808483CD888587028499
:101E600070BD70B54FF000052A462B462C46058CF8
:101E70004EF6FF7605EA06050584058C2B46858817
:101E80002C46858B2A4648F6FF7502EA05052A4648
:101E90004FF6FF4502EA05052A460D884FEA05651B
:101EA00042EA15452A464DF6FF7503EA05052B461D
:101EB0000D894FEA057543EA15452B464D884FEAD3
:101EC000057543EA15452B46C84DA84202D0C84DBA
:101ED000A8420AD14BF6FF7504EA05052C468D8908
:101EE0004FEA855544EA15452C4684808283CD8887
:101EF000A0F84050038470BD828B4FF2FF3302EA9A
:101F000003028283828B4FEA016342EA1342828397
:101F10007047F0B50C4615464FF000073A46394673
:101F20003E46078C4EF6FF7C07EA0C070784878B3A
:101F30003A46078C39464FEA04774FEA17473E4640
:101F400040F6FF4702EA07073A464FEA056742EACA
:101F500017473A464FEA037742EA17473A46A34FF4
:101F6000B8420ED0A24FB8420BD0B0F1804F08D08B
:101F7000A04FB84205D0A04FB84202D09F4FB84200
:101F80000AD14DF6FF7701EA0707394646F4805734
:101F900047EA0107394609E047F6FF5701EA070714
:101FA000394644F4805747EA010739468283018461
:101FB000F0BD828B4FF6F37302EA03028283828BB9
:101FC00042EA010282837047F0B50C4615464FF095
:101FD00000073A4639463E46078C4FF6FF6C07EA43
:101FE0000C070784878B3A46078C39464FEA04670B
:101FF0004FEA17473E464FF60C7702EA07073A4684
:102000004FEA035745EA174747EA02073A46774F30
:10201000B8420ED0764FB8420BD0B0F1804F08D006
:10202000744FB84205D0744FB84202D0734FB842D3
:102030000AD14FF6FF5701EA0707394646F4807781
:1020400047EA0107394609E04FF2FF5701EA07075F
:10205000394644F4807747EA010739468283018490
:10206000F0BD028B4FF2FF3302EA03020283028BC0
:102070004FEA016342EA134202837047F0B50C460F
:1020800015464FF000073A4639463E46078C4FF654
:10209000EF7C07EA0C070784078B3A46078C394622
:1020A0004FEA04574FEA17473E4640F6FF4702EA19
:1020B00007073A464FEA037742EA17473A464FEA9C
:1020C000056742EA17473A46484FB8420ED0484F94
:1020D000B8420BD0B0F1804F08D0464FB84205D07F
:1020E000454FB84202D0454FB8420AD14FF6DF778C
:1020F00001EA0707394646F0100747EA0107394663
:1021000009E04FF65F7701EA0707394644F0100708
:1021100047EA0107394602830184F0BD028B4FF67E
:10212000F37302EA03020283028B42EA0102028392
:102130007047F0B50C4615464FF000063246314662
:10214000068C4FF6FE7706EA07060684068B3246B3
:10215000068C31464FF60C7602EA060632464FEA06
:10216000035645EA164646EA020632461F4EB0427C
:102170000ED01F4EB0420BD0B0F1804F08D01D4E94
:10218000B04205D01C4EB04202D01C4EB0420AD123
:102190004FF6FD7601EA0606314644F0010646EAAE
:1021A0000106314609E04FF6F57601EA06063146AA
:1021B00044F0010646EA0106314602830184F0BD7F
:1021C00070B505460C46094885420ED00848854240
:1021D0000BD0B5F1804F08D00648854205D006489F
:1021E000854202D0054885420AD10AE0002C014010
:1021F000003401400004004000080040000C004092
:1022000000BF208870B920890346A08802466088F4
:1022100001462846FFF78DFFE08801462846FFF774
:102220007DFF31E0208804280ED120890346A08854
:102230000246608801462846FFF720FFE0880146F5
:102240002846FFF70EFF1FE0208808280ED12089BE
:102250000346A0880246608801462846FFF7B4FE80
:10226000E08801462846FFF7A4FE0DE020890346DA
:10227000A0880246608801462846FFF74AFEE088AB
:1022800001462846FFF738FE70BD2DE9F0410546AE
:102290000C464FF0000006464FF0010007466088EC
:1022A00018B94FF00200064602E04FF00000064663
:1022B000A088012803D14FF00200074602E04FF04A
:1022C000010007462088D0B920890346A08802462D
:1022D000608801462846FFF72CFFE0880146284623
:1022E000FFF71CFF208903463A4631462846FFF790
:1022F000C5FEE08801462846FFF7B3FE19E02089B5
:102300000346A0880246608801462846FFF7B6FECD
:10231000E08801462846FFF7A4FE208903463A4696
:1023200031462846FFF705FFE08801462846FFF7BB
:10233000F5FEBDE8F0810A884B8842EA03028B88EB
:1023400042EA0302CB8842EA03020B8942EA030213
:102350004B8942EA03028B8942EA0302A0F8442037
:1023600070474FF6FF7181804FF000010180C180FE
:102370004180017270474FF00001018041808180EF
:10238000C180018141818181C18170474FF000018D
:10239000018041804FF0010181804FF00001C18038
:1023A000018170474FF00001018041808180C18030
:1023B000018141818181704721B1028842F001028F
:1023C000028005E002884FF6FE7302EA03020280F3
:1023D000704731B1B0F8442042F40042A0F84420E4
:1023E00005E0B0F84420C2F30E02A0F84420704784
:1023F00010B522B1838943EA0103838106E0838912
:102400006FEA0104A4B203EA0403838110BD818250
:10241000704741EA0203A0F84830704710B522B176
:10242000838943EA0103838106E083896FEA01041B
:10243000A4B203EA0403838110BD01894FF6F87248
:1024400001EA0201018170470A464FF00003194674
:10245000038919464FF68F7301EA0303194641EACF
:10246000020319460181704730B504460D462946DE
:102470002046FFF7E9FF208940F00700208130BDAA
:102480002DE9F04104460D4616461F46602D06D143
:102490003B46012231462046FFF7F0FD05E03B4672
:1024A000012231462046FFF744FE29462046FFF729
:1024B000CBFF208940F007002081BDE8F08130B5D6
:1024C0000C464FF00005294605892946CDB229461C
:1024D0004FEA036542EA154545EA040545EA010568
:1024E0002946018130BD2DE9F04105460E461746CB
:1024F00098464FF00000044643463A463146284687
:10250000FFF7DDFF288904464FF6F87104EA010061
:10251000044644F0070004464FF68F7104EA0100B8
:10252000044644F0700004462C81BDE8F081F0B50B
:1025300004460D4616461F463B463246294620466F
:10254000FFF7BDFF208940F480402081F0BD018568
:10255000828270470A464FF00003194603881946E5
:102560004FF68F7301EA0303194641EA0203194645
:1025700001807047F0B50C4615461E464FF0000727
:1025800039463A463B4607893946078B3A46078C17
:102590003B464FF6F87701EA0707394641EA040758
:1025A00039464FF6FC4702EA07073A4640F2011760
:1025B00042EA07073A464FF6DD7703EA07073B464C
:1025C0004FEA065745EA174747EA03073B460181AA
:1025D00002830384F0BD0A464FF000031946038BC3
:1025E00019464FF68F7301EA0303194641EA0203C5
:1025F0001946018370470A464FF000031946038BC2
:10260000194648F6FF7301EA030319464FEA0263CD
:1026100041EA13431946018370470A464FF000030D
:102620001946838B19464FF68F7301EA0303194647
:1026300041EA02031946818370470A464FF00003BE
:102640001946838B194648F6FF7301EA03031946BE
:102650004FEA026341EA134319468183704721B16F
:10266000028842F08002028005E002884FF67F7304
:1026700002EA03020280704721B1828842F004021C
:10268000828005E082884FF6FB7302EA03028280B3
:10269000704721B1828842F00802828005E082887A
:1026A0004FF6F77302EA03028280704721B18288F5
:1026B00042F00102828005E082884FF6FE7302EA52
:1026C0000302828070470A464FF000031946038BCD
:1026D00019464FF6F77301EA0303194641EA02036C
:1026E0001946018370470A464FF000031946038BD1
:1026F00019464FF2FF7301EA030319464FEA0263DA
:1027000041EA13431946018370470A464FF000031C
:102710001946838B19464FF6F77301EA03031946EE
:1027200041EA02031946818370470A464FF00003CD
:102730001946838B19464FF2FF7301EA03031946CA
:102740004FEA026341EA13431946818370470A4600
:102750004FF000031946038B19464FF6FB7301EA4D
:102760000303194641EA02031946018370470A46EA
:102770004FF000031946038B19464FF6FF3301EA69
:10278000030319464FEA026341EA134319460183E2
:1027900070470A464FF000031946838B19464FF6DF
:1027A000FB7301EA0303194641EA020319468183D8
:1027B00070470A464FF000031946838B19464FF6BF
:1027C000FF3301EA030319464FEA026341EA134368
:1027D0001946818370470A464FF000031946038B60
:1027E00019464FF67F7301EA0303194641EA0203D3
:1027F0001946018370470A464FF000031946038BC0
:102800001946C1F30E0319464FEA026341EA134326
:102810001946018370470A464FF000031946838B1F
:1028200019464FF67F7301EA0303194641EA020392
:102830001946818370470A464FF000031946838B7F
:102840001946C1F30E0319464FEA026341EA1343E6
:102850001946818370470A464FF000031946038CDE
:1028600019464FF6FD7301EA0303194641EA0203D4
:102870001946018470470A464FF000031946038C3D
:1028800019464FF6F77301EA0303194641EA0203BA
:102890001946018470470A464FF000031946038C1D
:1028A00019464FF6DF7301EA030319464FEA025354
:1028B00041EA13431946018470470A464FF000036A
:1028C0001946038C19464FF67F7301EA0303194634
:1028D0004FEA025341EA13431946018470470A46FE
:1028E0004FF000031946038C19464FF6FF5301EAD7
:1028F000030319464FEA026341EA13431946018470
:1029000070470A464FF000031946038C19464FF2F0
:10291000FF7301EA030319464FEA026341EA1343D6
:102920001946018470470A464FF000031946038C8C
:1029300019464DF6FF7301EA030319464FEA027385
:1029400041EA134319460184704730B54FF0000443
:1029500023464FF0010404FA01F4A4B22346048C88
:102960006FEA0305ADB204EA05040484048C02FA9C
:1029700001F5ADB244EA0504048430BD30B54FF032
:10298000000423464FF0040404FA01F4A4B22346E1
:10299000048C6FEA0305ADB204EA05040484048CD8
:1029A00002FA01F5ADB244EA0504048430BD70B505
:1029B00003464FF0000528462C46184600F118053E
:1029C00028464FF0010505FA01F5ADB22C461D8CE5
:1029D0006FEA0406B6B205EA06051D8409B10829A6
:1029E0000BD100EB61052846056825F070050560F0
:1029F000056845EA020505600FE0A1F10405ADB2E6
:102A000000EB65052846056825F4E0450560056886
:102A10004FEA026645EA1645056070BD21B102889D
:102A200042F00202028005E002884FF6FD7302EADE
:102A300003020280704721B1028842F00402028042
:102A400005E002884FF6FB7302EA0302028070473A
:102A500021B1828842F08002828005E082884FF6B0
:102A60007F7302EA03028280704702884FF6F77391
:102A700002EA03020280028842EA010202807047F1
:102A800082884FF68F7302EA03028280828842EACC
:102A900001028280704702894FF6F87302EA03024E
:102AA0000281028942EA01020281704702894FF6DF
:102AB0007F7302EA03020281028942EA0102028173
:102AC0007047818470478185704781867047018790
:102AD000704781877047A0F84010704702884FF612
:102AE000FF4302EA03020280028842EA01020280F6
:102AF00070470146888E70470146088F704701462F
:102B0000888F70470146B1F8400070470146888CB5
:102B100070470146088D704702464FF00003184683
:102B2000138A0B4203D04FF00103184602E04FF026
:102B30000003184670476FEA01020282704730B501
:102B400002464FF0000528462B462C46158A05EA1A
:102B500001052B46958905EA01052C4623B11CB1D8
:102B60004FF00105284602E04FF00005284630BD31
:102B70006FEA0102028270471149086070471049EC
:102B8000486070470E49886070474AF6AA200C4991
:102B9000086070474CF6CC40094908607047014610
:102BA0004FF000021046064AD2680A4203D04FF0A6
:102BB0000102104602E04FF000021046704700008C
:102BC000003000403E4940EA01013E4A1160704732
:102BD00070B54FF00004214623464FF00F04224603
:102BE000C4787CB3374C246804F4E064C4F5E06432
:102BF0004FEA14242146C1F10404234622FA01F4C9
:102C00002246447804FA03F42146847804EA020454
:102C100044EA010421464FEA011421462A4C067871
:102C2000A155047804F01F054FF0010404FA05F4DF
:102C300005784FEA65154FF0E02606EB8505C5F8E7
:102C400000410DE0FFE7047804F01F054FF0010498
:102C500004FA05F41D4D06784FEA661645F826403D
:102C600070BD1B4A01EA020242EA0002194B1A60D7
:102C7000704741B1184A126842EA00024FF0E0235F
:102C8000C3F8102D07E0144A126822EA00024FF040
:102C9000E023C3F8102D7047042808D14FF0E0213D
:102CA000096941F004014FF0E022116107E04FF0A3
:102CB000E021096921F004014FF0E0221161704721
:102CC0000000FA050CED00E000E400E080E100E027
:102CD00080FFFF1F08ED00E010ED00E04FF0000264
:102CE00011461046724A126842F48032704B1A60E4
:102CF00000BF6F4A126802F40032104601F101026F
:102D0000114610B9B1F5A06FF3D1694A126812F4F7
:102D1000003F03D04FF00102104602E04FF00002E6
:102D20001046012842D1634A126842F01002614BFA
:102D30001A601A46126822F003021A601A461268D4
:102D400042F002021A605A4A5268594B5A601A46B7
:102D500052685A601A46526842F480625A601A46B3
:102D6000526822F47C125A601A46526842F4E81201
:102D70005A601A46126842F080721A6000BF4C4ACC
:102D8000126812F0007FFAD0494A526822F003021A
:102D9000474B5A601A46526842F002025A6000BF1E
:102DA000434A526802F00C02082AF9D1704710B564
:102DB000FFF794FF10BD10B53D48006840F00100DA
:102DC0003B490860084640683B4900EA0100384931
:102DD000486008460068394900EA01003449086043
:102DE0000846006820F4802008600846406820F407
:102DF000FE0048604FF41F008860FFF7D8FF4FF0D7
:102E000000602F49086010BD10B54FF0000319464F
:102E100018461A46264B5B6803F00C03194621B18D
:102E2000042906D008292FD107E0264B264C236021
:102E30002EE0244B244C23602AE01D4B5B6803F4F6
:102E4000701318461A4B5B6803F480331A464FF030
:102E5000020303EB904318462AB91C4B00FB03F313
:102E6000194C23600FE0124B5B6813F4003F05D050
:102E7000164B00FB03F3144C236004E0114B00FBE2
:102E800003F3114C236003E00E4B0F4C236000BF93
:102E900000BF074B5B68C3F303130D4CE35C19469B
:102EA000094B1B6823FA01F3074C236010BD000097
:102EB00000100240002002400000FFF8FFFFF6FE75
:102EC00008ED00E000127A002C00002000093D000F
:102ED0003000002040EA01039B0703D009E008C945
:102EE000121F08C0042AFAD203E011F8013B00F8CF
:102EF000013B521EF9D27047D2B201E000F8012B1B
:102F0000491EFBD270470022F6E710B5044608467A
:102F1000114602462046FFF7EFFF204610BD80EA2B
:102F2000010210B502F00042400026D04B0023D031
:102F30004FEA106101EB1361C0F35600C3F356036F
:102F400040F4000043F40003A0FB0330A1F17F0133
:102F50004FEA00401C0401D000F1010050EA134088
:102F600001D44000491EC3B20C0604EBD010401C33
:102F70004008802B02D003E0002010BD20F00100AB
:102F8000002900DA0020104310BD2DE9FE4F07464E
:102F900081EA0300C00F0E46019021F0004123F0AA
:102FA0000044B81AA14105D23846314617461E469C
:102FB0000B46024623F00040104304D13846314608
:102FC00003B0BDE8F08F350DC5F30A00C3F30A5115
:102FD0000290401A009040286ADAC3F3130040F4CC
:102FE000801083460198924630B10023D2EB030152
:102FF00063EB0B008A46834600985946C0F14002B5
:10300000504600F053F980460C4650465946009A07
:1030100000F06BF9C0197141EF1785EA11533B437A
:103020003FD0019A4AB3009A012A11DC0022801A8B
:103030004FF0004361EB055103EA05538018CDE9D9
:10304000002341F580114246234600F0A3F9B7E77B
:103050002E050025401B61EB0601401941F5801249
:10306000001852412818A6F5001343EB020140EA6C
:10307000D47018EB0808644113E064084FEA38087C
:103080004FF0000244EAC0744FEA0553801A61EB26
:103090000301801841F5801149084FEA300080187B
:1030A00059414246234603B0BDE8F04F00F065B9F0
:1030B0000198012240000023D0EB020263EBE07391
:1030C00001984FEAE074381A66EB0401EBE783F0ED
:1030D00000435AE781F0004157E72DE9FE4F81EAAE
:1030E0000304002621F0004504F0004423F00041D1
:1030F000B246009450EA050302D052EA010304D11B
:103100000020014603B0BDE8F08FC5F30A54C1F3B7
:103110000A53C1F313011C4441F48018A0FB0213AD
:10312000C5F3130545F4801C0CFB023300FB083E7D
:103130008B46A4F2F334810A930A41EA8C5143EAA4
:1031400088530194A1FB03474FEA9C2505FB0373B9
:103150004FEA982601FB06373D05260545EA14355A
:10316000BBEB06016EEB0503850E920E45EA8C154E
:1031700042EA8812A5FB0206261E67EB00070C0D2B
:1031800044EA0334A61947EB1350C1F313044FF07C
:1031900000031946E5FB02014FEA033343EA1453E7
:1031A0004FEA0432019C43EA0603A4F10C040294A2
:1031B000009CCDE900A400F0EDF8A3E70EB5C10F27
:1031C00080EAE0700844CA07002140F233438DE8EA
:1031D0000E000A460B4600F0DDF803B000BD70B5E6
:1031E000C1F30A5201F000450024C1F3130140F27B
:1031F000FF3341F480119A4201DA002070BD40F2A1
:1032000033439A42A2F2334203DC524200F05DF8AB
:1032100000E090402C43F1D0404270BD00F00042ED
:1032200030F000400DD0C10D01F5607142EA01514E
:103230000022C0F31600520742EAD00240071143B1
:10324000704700200146704701F0004230B421F081
:10325000004150EA010306D00B0DA3F56073C1F3E2
:103260001301002B02DC30BC00207047440F44EAFD
:10327000C104C100A01830BC00EBC35000F047B837
:1032800030B50B46014600202022012409E021FA36
:1032900002F59D4205D303FA02F5491B04FA02F533
:1032A0002844151EA2F10102F1DC30BD202A04DB06
:1032B000203A00FA02F1002070479140C2F1200349
:1032C00020FA03F3194390407047202A04DB203A88
:1032D00021FA02F00021704721FA02F3D040C2F136
:1032E00020029140084319467047202A06DBCB177D
:1032F000203A41FA02F043EAE07306E041FA02F3B1
:10330000D040C2F12002914008431946704700297D
:10331000A8BF7047401C490008BF20F0010070475B
:1033200010B4B0FA80FC00FA0CF050EA010404BFBB
:1033300010BC704749B1CCF1200421FA04F411FA11
:103340000CF118BF012121430843A3EB0C01CB1D55
:103350000106000A002BBEBF002010BC704700EB26
:10336000C35010440029A4BF10BC7047401C490042
:1033700008BF20F0010010BC704710B5002B08DA20
:10338000401C41F1000192185B411A4301D120F029
:10339000010010BD2DE9FF4D934611B1B1FA81F244
:1033A00002E0B0FA80F220329246FFF77FFF039AE4
:1033B0000746884640EA0B0011435B46084304D1A8
:1033C0003846414604B0BDE8F08D114653EA01008D
:1033D00018D0CAF140025846FFF777FF04460D4661
:1033E0004FF00106584652460399FFF75FFF084326
:1033F00000D10026344345EAE6753C4345EA08051A
:103400002746A8460E984FF00005A0EB0A014FEAA8
:10341000D7200A314FEA47532A4640EA48504FEA3C
:10342000D82402D500200146CCE7281844EB0151EE
:10343000DDE90C45001904B06941BDE8F04D9CE799
:10344000064C074D06E0E06840F0010394E80700F1
:1034500098471034AC42F6D3FCF76EFE643800088F
:10346000843800080FB4054B10B503A9044A02982C
:1034700000F018F810BC5DF814FB00006F010008A4
:103480000800002002E008C8121F08C1002AFAD173
:1034900070477047002001E001C1121F002AFBD1D4
:1034A000704700002DE9FF4F8DB005468846002685
:1034B00089E125287AD100246D1CC74AA146A3467C
:1034C00001212B78203B01FA03F0104202D0044383
:1034D0006D1CF6E728782A2810D06FF02F02287884
:1034E000A0F13001092918D809EB890102EB41014B
:1034F000084444F0020481466D1CF0E7D8F800103F
:1035000008F10400B1F10009804603DA484244F4AE
:103510000054814644F002046D1C28782E281BD1EB
:1035200015F8010F44F004042A280ED06FF02F0282
:103530002878A0F1300109290ED80BEB8B0102EBA2
:103540004101084483466D1CF2E7D8F8001008F1E9
:1035500004008B4680466D1C28786C280FD006DC52
:103560004C2817D068280DD06A2814D104E074289C
:1035700010D07A280FD10DE044F400140AE044F48E
:10358000801401E044F440146978814202D16D1C3A
:1035900004F580146D1C2878692874D007DC002895
:1035A00070D0632829D0642807D16CE005E06E282C
:1035B00008D0732830D075287BD0DDE90F129047F2
:1035C000761CFFE0C4F3025002280AD003280ED074
:1035D000D8F8001004280ED00E6008F104008046D0
:1035E000F0E0D8F80010F217C1E90062F5E7D8F86A
:1035F00000100E80F1E70E70EFE7D8F8001008F128
:10360000040080468DF800104FF000008DF8010096
:10361000EA464FF0010007E0D8F8001008F1040076
:1036200080468A464FF0FF3061074FF0000701D413
:103630000AE07F1C5F450DDA8742FADB1AF80710B3
:103640000029F6D106E07F1C8742FCDB1AF8071040
:103650000029F8D1DDE90F23A9EB070081462146B7
:1036600000F0CFF83044C61907E09AF800000AF1DC
:1036700001018A46DDE90F1290477F1EF5D22146EF
:1036800048469AE0A3E00A20074608F10401D8F86A
:1036900000008846C4F30251032900D100B2042976
:1036A00000D140B2002805DAC0F100004FF02D0132
:1036B00003E00EE0210504D52B218DF82C1001210B
:1036C00003E0E10714D02021F7E7099108A98A4611
:1036D00019E00A20074608F10401D8F800008846DE
:1036E000C4F30251032900D180B2042900D1C0B231
:1036F0000021EAE73946FFF7C3FD01F13002AAF1E4
:1037000001018A460A700028F4D1ADEB0A0000F1ED
:1037100020000890600702D524F4803401E00120E5
:103720008346089A00205946934501DDA1EB02002B
:10373000834600EB020109980144A9EB01000A90BD
:10374000E00306D4DDE90F2321460A9800F059F87A
:10375000064400270DF12C0906E0DDE90F1219F8E7
:1037600007009047761C7F1C09988742F5DBE00331
:103770000CD5DDE90F2321460A9800F042F80644F3
:1037800004E0DDE90F1230209047761CBBF1000108
:10379000ABF101008346F4DC08E09AF800000AF17E
:1037A00001018A46DDE90F129047761C0899481EF0
:1037B00008900029F1DC0A982146DDE90F2300F08A
:1037C0000DF806446D1C287800287FF472AE11B005
:1037D0003046BDE8F08F0000092801002DE9F041D6
:1037E0000446002517461E46880405D406E03946DF
:1037F0002020B04705F10105641EF8D52846BDE834
:10380000F0812DE9F04104460025302790461E4600
:10381000C80300D42027880405D506E04146384671
:10382000B04705F10105641EF8D52846BDE8F081D2
:10383000000000001F0000001C0000001F0000002E
:103840001E0000001F0000001E0000001F000000FE
:103850001F0000001E0000001F0000001E000000EE
:103860001F00000084380008000000204000000015
:1038700084340008C43800084000002068040000B8
:103880009434000800000000000000000000000068
:103890000000000000000000FA000000000001022B
:1038A00003040102030406070809020406080000D5
:1038B00000A24A040000000000000000010203040E
:0438C00006070809E6
:0400000508000131BD
:00000001FF
